{
  "contractName": "MonContract",
  "abi": [
    {
      "anonymous": false,
      "inputs": [
        {
          "indexed": false,
          "internalType": "uint256",
          "name": "id",
          "type": "uint256"
        },
        {
          "indexed": false,
          "internalType": "string",
          "name": "noms",
          "type": "string"
        },
        {
          "indexed": false,
          "internalType": "uint256",
          "name": "temps",
          "type": "uint256"
        }
      ],
      "name": "MonEvenement",
      "type": "event"
    },
    {
      "inputs": [
        {
          "internalType": "uint256",
          "name": "",
          "type": "uint256"
        }
      ],
      "name": "noms",
      "outputs": [
        {
          "internalType": "string",
          "name": "",
          "type": "string"
        }
      ],
      "stateMutability": "view",
      "type": "function",
      "constant": true
    },
    {
      "inputs": [
        {
          "internalType": "string",
          "name": "_nom",
          "type": "string"
        }
      ],
      "name": "enregistrer",
      "outputs": [],
      "stateMutability": "nonpayable",
      "type": "function"
    }
  ],
  "bytecode": "0x608060405234801561001057600080fd5b5061062e806100206000396000f3fe608060405234801561001057600080fd5b50600436106100365760003560e01c80637b32de851461003b578063dd9143091461006b575b600080fd5b61005560048036038101906100509190610308565b610087565b6040516100629190610379565b60405180910390f35b610085600480360381019061008091906102c7565b610127565b005b600160205280600052604060002060009150905080546100a690610497565b80601f01602080910402602001604051908101604052809291908181526020018280546100d290610497565b801561011f5780601f106100f45761010080835404028352916020019161011f565b820191906000526020600020905b81548152906001019060200180831161010257829003601f168201915b505050505081565b600080815480929190610139906104fa565b919050555080600160008054815260200190815260200160002090805190602001906101669291906101a7565b507f03a5c839c38faecf8985be72dbd055e7f4294906576dae3f87cfc0e31ecb4ee6600054824260405161019c9392919061039b565b60405180910390a150565b8280546101b390610497565b90600052602060002090601f0160209004810192826101d5576000855561021c565b82601f106101ee57805160ff191683800117855561021c565b8280016001018555821561021c579182015b8281111561021b578251825591602001919060010190610200565b5b509050610229919061022d565b5090565b5b8082111561024657600081600090555060010161022e565b5090565b600061025d610258846103fe565b6103d9565b90508281526020810184848401111561027557600080fd5b610280848285610455565b509392505050565b600082601f83011261029957600080fd5b81356102a984826020860161024a565b91505092915050565b6000813590506102c1816105e1565b92915050565b6000602082840312156102d957600080fd5b600082013567ffffffffffffffff8111156102f357600080fd5b6102ff84828501610288565b91505092915050565b60006020828403121561031a57600080fd5b6000610328848285016102b2565b91505092915050565b600061033c8261042f565b610346818561043a565b9350610356818560208601610464565b61035f816105d0565b840191505092915050565b6103738161044b565b82525050565b600060208201905081810360008301526103938184610331565b905092915050565b60006060820190506103b0600083018661036a565b81810360208301526103c28185610331565b90506103d1604083018461036a565b949350505050565b60006103e36103f4565b90506103ef82826104c9565b919050565b6000604051905090565b600067ffffffffffffffff821115610419576104186105a1565b5b610422826105d0565b9050602081019050919050565b600081519050919050565b600082825260208201905092915050565b6000819050919050565b82818337600083830152505050565b60005b83811015610482578082015181840152602081019050610467565b83811115610491576000848401525b50505050565b600060028204905060018216806104af57607f821691505b602082108114156104c3576104c2610572565b5b50919050565b6104d2826105d0565b810181811067ffffffffffffffff821117156104f1576104f06105a1565b5b80604052505050565b60006105058261044b565b91507fffffffffffffffffffffffffffffffffffffffffffffffffffffffffffffffff82141561053857610537610543565b5b600182019050919050565b7f4e487b7100000000000000000000000000000000000000000000000000000000600052601160045260246000fd5b7f4e487b7100000000000000000000000000000000000000000000000000000000600052602260045260246000fd5b7f4e487b7100000000000000000000000000000000000000000000000000000000600052604160045260246000fd5b6000601f19601f8301169050919050565b6105ea8161044b565b81146105f557600080fd5b5056fea2646970667358221220a7b10ac7d544ac77866aca368f74f120253780fa53e3672bcb7ad27d3e8794d564736f6c63430008040033",
  "immutableReferences": {},
  "source": "// SPDX-License-Identifier: MIT\r\npragma solidity >=0.4.22 <0.9.0;\r\n\r\n\r\n\r\ncontract MonContract {\r\n\r\n            uint256 index;\r\n            mapping(uint256=>string)public noms;\r\n\r\n            event MonEvenement(uint256 id, string noms,uint256 temps);\r\n            function enregistrer(string memory _nom) external {\r\n                    index++;\r\n                    noms[index]=_nom;\r\n                emit MonEvenement(index, _nom, block.timestamp);\r\n            }\r\n\r\n}",
  "sourcePath": "C:/Users/enock/web3-course/contracts/MonContract.sol",
  "compiler": {
    "name": "solc",
    "version": "0.8.4+commit.c7e474f2.Emscripten.clang"
  },
  "schemaVersion": "3.4.1",
  "updatedAt": "2021-11-19T02:16:02.258Z",
  "networkType": "ethereum",
  "devdoc": {
    "kind": "dev",
    "methods": {},
    "version": 1
  },
  "userdoc": {
    "kind": "user",
    "methods": {},
    "version": 1
  }
}